:100000000C9471010C94A2010C94A2010C94A20115
:100010000C94A2010C94A2010C94A2010C94A201D4
:100020000C94A2010C94280B0C94280B0C94280B14
:100030000C94A2010C94A00C0C94A2010C94A201AB
:100040000C94A2010C94F90E0C94A2010C94A20140
:100050000C94A2010C94A2010C94A2010C94560CD5
:100060000C94A2010C940F0E0C94E50D0C94A201BB
:100070000C94A2010C94A2010C94A2010C94A20174
:100080000C94A2010C94A2010C94A2010C94A20164
:100090000C94A2010C94A2010C94A2010C94320BBA
:1000A0000C94A2010C94A2010C94A2010C94A20144
:1000B0000C94A2010C94A2010C94A2010C94390E90
:1000C0000C94A2010C94A2010C94A2010C94BB0DFF
:1000D0000C94910D0C94A2010C94670D0C943D0DA1
:1000E0000C94A2010C94B6020C94AC020C94F7018F
:1000F0000C947F020C94F6040C94CB010C94DD015B
:100100000C94CD010C9406060C9425070C94CE019A
:100110000C9486020C949E020C949A020C941B0779
:100120000C94F7060C944B050C947B020C94CC01B8
:100130000C94F0010C945F050C9452070C94B102DE
:100140000C943C050C94A70F0C946D050C942402A0
:100150000C9483020C9496020C94DE060C9409070E
:100160000C94AD140C945C070C94B2020C94A8028D
:100170000C9477020C94ED060C9471020C94E30637
:100180000C943E070C94B9050C9470070C9401076D
:100190000C9411070C9420080C942F070C949002D7
:1001A0000C94A4020C9447080C9448070C948C02FD
:1001B0000C9466070C94CD060C94210802000021D3
:1001C00000240027002A002D003000330001010028
:1001D00000040107010A0100002200250028002B6D
:1001E000002E003100340002010000050108010B5F
:1001F00001000020002300260029002C002F0032DF
:1002000000000100000301060109010505050507BD
:100210000508080808020202020A0A080804040481
:1002200004010101010101010103030303030303AD
:1002300003040707070C0C0C0C0C0C0C0C0202023C
:100240000206060606060606060B0B0B0B0B0B0B2F
:100250000B010210202008081020401020408002CE
:1002600001020108040201010204081020408080FC
:100270004020100804020180040201804020100880
:100280000402010804020101020408102040800158
:100290000204081020408000000A0B02090C0D0E19
:1002A0000807030401000000000000000000000037
:1002B000000000000000000000000000000000003E
:1002C00000000012111000000000000000000000FB
:1002D0000000000000000000000000000000A70F68
:1002E000AD1411241FBECFEFD1E2DEBFCDBF00E0C1
:1002F0000CBF12E0A0E0B2E0E2ECF1E300E00BBFE3
:1003000002C007900D92A634B107D9F727E0A6E402
:10031000B2E001C01D92A032B207E1F711E0C0E7E0
:10032000D1E000E006C021970109802FFE010E9464
:10033000F515CF36D10780E00807A9F70E948F1185
:100340000C94CF180C9400002091B402260F332790
:10035000331F21323105ECF420910103FC0190E0C0
:1003600080E0243069F082E00895A091B4022191E8
:10037000AC014E565D4FA40FB52FB11D2C930196C5
:10038000861798F38091B402680F6093B40280E0FE
:10039000089581E00895089508950895E0919002E8
:1003A00080918F02E81730F4F0E0E159FD4F808131
:1003B00090E008958FEF9FEF0895909190028091C3
:1003C0008F022FEF3FEF981748F4E92FF0E0E15943
:1003D000FD4F208130E09F5F90939002C901089506
:1003E00080918F0290919002891B990B0895CF9272
:1003F000DF92EF92FF920F931F93CF93DF937C01D5
:10040000CB018A0120910703222389F0EB016B01C4
:10041000C40ED51ECC15DD0569F06991D701ED91AB
:10042000FC910190F081E02DC7011995F3CF642F65
:100430000E94A401C801DF91CF911F910F91FF90FD
:10044000EF90DF90CF900895CF93DF931F92CDB7B9
:10045000DEB76983209107032223F9F020912A0354
:10046000203258F021E030E0FC013383228390E019
:1004700080E00F90DF91CF91089580910803E82FDD
:10048000F0E0E75FFC4F998190838F5F80930803D2
:1004900080932A0381E090E0ECCF61E0CE010196E9
:1004A0000E94A401F7CF8150823108F05AC0E82F92
:1004B000F0E08827E15AFD4F8F4F0C94F5157F022D
:1004C0008302710277027B02B10286028C029002E3
:1004D00096029A029E02A402A802B102AC02B202E3
:1004E000B602809180008F7780938000089580917C
:1004F00080008F7DF9CF80918000877FF5CF84B514
:100500008F7784BD089584B58F7DFBCF8091B00037
:100510008F778093B00008958091B0008F7DF9CFE0
:10052000809190008F778093900008958091900043
:100530008F7DF9CF80919000877FF5CF8091A000CB
:100540008F778093A00008958091A0008F7DF9CFD0
:100550008091A000877FF5CF809120018F778093D5
:1005600020010895809120018F7DF9CF8091200195
:10057000877FF5CFCF93DF93282F30E0F901E9563D
:10058000FD4F8491F901EF5AFD4FD491F901E55FD8
:10059000FD4FC491CC23A1F081110E945302EC2F96
:1005A000F0E0EE0FFF1FEF50FE4FA591B491EC91DC
:1005B000ED2381E090E009F480E0DF91CF91089590
:1005C00080E090E0FACF1F93CF93DF93282F30E0A5
:1005D000F901E956FD4F8491F901EF5AFD4FD4918D
:1005E000F901E55FFD4FC491CC23A9F0162F8111CD
:1005F0000E945302EC2FF0E0EE0FFF1FE952FE4F76
:10060000A591B4918FB7F894EC91111108C0D095D1
:10061000DE23DC938FBFDF91CF911F910895DE2BF6
:10062000F8CF1092010381E0809300031092DB0267
:1006300061E084E10E94E30261E085E10E94E3025F
:10064000E9EBF0E080818E7F808380818D7F8083E5
:1006500088E48093B80085E48093BC000895CF932C
:10066000DF9391E0909391028823B9F0C091B80094
:10067000D091BA008091BC008A7B8093BC0060E07E
:1006800084E10E94E30260E085E10E94E3020E94AF
:100690001103D093BA00C093B800DF91CF910895B1
:1006A000CF93DF9390E0FC01EF5AFD4F2491855FDB
:1006B0009D4FFC0184918823D1F090E0880F991F11
:1006C000FC01E354FE4FA591B491FC01E952FE4FA9
:1006D000C591D49161110EC09FB7F8948C91E22F0F
:1006E000E0958E238C932881E223E8839FBFDF91DE
:1006F000CF9108958FB7F894EC91E22BEC938FBFD4
:10070000F6CF3FB7F89480916B0290916C02A09164
:100710006D02B0916E0226B5A89B05C02F3F19F05F
:100720000196A11DB11D3FBFBA2FA92F982F882771
:10073000BC01CD01620F711D811D911D42E0660F4C
:10074000771F881F991F4A95D1F70895CF92DF929E
:10075000EF92FF920F931F93CF93DF93D0912A03D1
:1007600081E0D13208F09CC0C09129030E9481032E
:100770006B017C018091010381116CC082E0809348
:10078000010381E0809300038FEF8093FF021092BA
:10079000FE02D093FD02A9E0B3E0EDEDF2E080E0CF
:1007A000D8138DC01092DC028091DC02CC0FC82BD4
:1007B000C093DC028091DB02813009F084C010928A
:1007C000DB020E9481036B017C018091DC0280933B
:1007D000BB008091030390910403A0910503B091A5
:1007E0000603892B8A2B8B2BA1F00E948103009199
:1007F00003031091040320910503309106036C1943
:100800007D098E099F09061717072807390708F47D
:1008100042C08091BC0083FDD8CF85EC8093BC00A2
:100820000E9481036B017C0180910103823009F4F5
:100830004CC08091FF028F3F09F469C08091FF0294
:10084000803209F466C08091FF02803309F463C0EE
:1008500084E026C08091030390910403A0910503D6
:10086000B0910603892B8A2B8B2B09F483CF0E942E
:10087000810300910303109104032091050330913B
:1008800006036C197D098E099F09061717072807AB
:10089000390708F06FCF809102030E942F0385E093
:1008A0001092080310922A0310920703DF91CF9150
:1008B0001F910F91FF90EF90DF90CF9008959D9141
:1008C00091938F5F6DCF85EEA9CF809103039091B7
:1008D0000403A0910503B0910603892B8A2B8B2B6F
:1008E00009F4A2CF0E948103009103031091040335
:1008F00020910503309106036C197D098E099F092B
:10090000061717072807390708F08ECFC4CF80E0F5
:10091000C7CF82E0C5CF83E0C3CF0F931F93CF93A0
:10092000DF93162F072FC5EED6E0AA85BB859C85E1
:1009300021E020930703909329031092080310925B
:100940002A03ED91FC9111970190F081E02D682F21
:10095000CD0119958A859B85DC01ED91FC91019073
:10096000F081E02D602F19958A859B85DC01ED9142
:10097000FC910190F081E02D612F1995DF91CF91CD
:100980001F910F910C94A6038F929F92AF92BF92EA
:10099000CF92DF92EF92FF924B015C010E948103A4
:1009A0006B017C010E9481036C197D098E099F09EE
:1009B000683E734081059105A8F321E0821A9108F1
:1009C000A108B10888EEC80E83E0D81EE11CF11C16
:1009D00081149104A104B10429F7FF90EF90DF90F6
:1009E000CF90BF90AF909F908F900895AF92BF929D
:1009F000CF92DF92EF92FF920F931F93CF93DF93EB
:100A00006C017B018B01040F151FEB015E01AE1819
:100A1000BF08C017D10759F06991D601ED91FC913B
:100A20000190F081E02DC6011995892B79F7C50158
:100A3000DF91CF911F910F91FF90EF90DF90CF90BA
:100A4000BF90AF900895FC01A089B1898C91A689CF
:100A5000B78982FD0FC09C91818D8F5F8F73228D2E
:100A6000821749F0A18DAE0FBF2FB11D5D969C93EB
:100A7000818F08958C910895FC01538D448D252F0D
:100A800030E0842F90E0821B930B541710F0CF9628
:100A9000089501970895FC01918D828D981761F05A
:100AA000A28DAE0FBF2FB11D5D968C91928D9F5F71
:100AB0009F73928F90E008958FEF9FEF0895FC0150
:100AC000918D828D981731F0828DE80FF11D858D03
:100AD00090E008958FEF9FEF0895FC01918D228D96
:100AE000892F90E0805C9F4F821B91098F7399271B
:100AF000089587E393E00E946D0521E0892B09F4B6
:100B000020E0822F089584ED93E00E946D0521E09E
:100B1000892B09F420E0822F089581E794E00E9458
:100B20006D0521E0892B09F420E0822F0895FC0156
:100B3000A48DA80FB92FB11DA35ABF4F2C91848D3E
:100B400090E001968F739927848FA689B7892C939B
:100B5000A089B1898C91837080648C93938D848DEE
:100B6000981306C00288F389E02D80818F7D8083F1
:100B70000895EF92FF920F931F93CF93DF93EC01B1
:100B800081E0888F9B8D8C8D98131AC0E889F98934
:100B9000808185FF15C09FB7F894EE89FF89608337
:100BA000E889F98980818370806480839FBF81E0B8
:100BB00090E0DF91CF911F910F91FF90EF900895FA
:100BC000F62E0B8D10E00F5F1F4F0F731127E02ED5
:100BD0008C8D8E110CC00FB607FCFACFE889F9890D
:100BE000808185FFF5CFCE010E949705F1CFEB8D77
:100BF000EC0FFD2FF11DE35AFF4FF0829FB7F894E1
:100C00000B8FEA89FB8980818062CFCFCF93DF93FE
:100C1000EC01888D8823B9F0AA89BB89E889F98914
:100C20008C9185FD03C0808186FD0DC00FB607FC49
:100C3000F7CF8C9185FFF2CF808185FFEDCFCE017C
:100C40000E949705E9CFDF91CF910895F0E0E0E0B1
:100C5000199480E090E0892B29F00E948D05811184
:100C60000E94000080E090E0892B49F080E090E055
:100C7000892B29F00E94000081110E9400000E942F
:100C8000830581110E94260680E090E0892B29F0DF
:100C90000E94790581110C94000008958F929F9213
:100CA000AF92BF92CF92DF92EF92FF920F931F937A
:100CB000CF93DF93EC016A017B0120E030E04FE746
:100CC00053E4CB01B6010E9417154B015C0120E0F3
:100CD00030E0A9010E94B41618168CF5C501B401C4
:100CE0000E947E168B01B98020E030E0A901C70187
:100CF000B6010E94B41660E018160CF061E08B2D6E
:100D00000E94E3020F3F110509F0ECF41127C8819E
:100D100061E08C2F0E94500301151105B9F460E0C9
:100D20008C2FDF91CF911F910F91FF90EF90DF906B
:100D3000CF90BF90AF909F908F900C94E302C5012D
:100D4000B4019058CDCF0FEF10E0E1CF0F3F110568
:100D500011F461E0E5CFEC2FF0E0E956FD4FE491AE
:100D6000E150E23108F0BCC0F0E08827E554F94FCB
:100D70008F4F0C94F515CD06DE06E306ED06F7065B
:100D800070070107090711071B0725072F073E07F3
:100D90004807700752075C07660784B5806884BD02
:100DA00007BDDF91CF911F910F91FF90EF90DF90E2
:100DB000CF90BF90AF909F908F90089584B5806240
:100DC00084BD08BDEECF8091800080688093800054
:100DD0001093890000938800E4CF809180008062A6
:100DE0008093800010938B0000938A00DACF80916B
:100DF000800088608093800010938D0000938C00A9
:100E0000D0CF8091B00080688093B0000093B30091
:100E1000C8CF8091B00080628093B0000093B4008E
:100E2000C0CF8091900080688093900010939900CB
:100E300000939800B6CF80919000806280939000DC
:100E400010939B0000939A00ACCF80919000886033
:100E50008093900010939D0000939C00A2CF8091FE
:100E6000A00080688093A0008091A0008F7B809379
:100E7000A0001093A9000093A80093CF8091A00038
:100E800080628093A0001093AB000093AA0089CFEA
:100E90008091A00088608093A0001093AD00009323
:100EA000AC007FCF80912001806880932001109357
:100EB00029010093280175CF8091200180628093E1
:100EC000200110932B0100932A016BCF8091200108
:100ED00088608093200110932D0100932C0161CF35
:100EE000003811050CF035CF1ACF8EBD00000DB4BF
:100EF00007FEFDCF8EB50895CF93DF93EC0160E040
:100F000088810E94E30288E90E94750780E00E94C0
:100F1000750780E00E94750780E00E94750780E0F9
:100F20000E94750761E088810E94E3028BE891E0EE
:100F30000197F1F760E088810E94E30280EE0E9451
:100F4000750761E08881DF91CF910C94E302AF9245
:100F5000BF92CF92DF92EF92FF920F931F93CF93A6
:100F6000DF93CDB7DEB760970FB6F894DEBF0FBE44
:100F7000CDBF6C0160E0FC0180810E94E30280E64D
:100F80000E9475079E012F5F3F4F79015E0131E19D
:100F9000A30EB11C870180E00E94750790E0B0E0CD
:100FA000A0E0F80181939193A193B1938F01EA1589
:100FB000FB0589F761E0F60180810E94E30280E091
:100FC00090E0DC01F70141915191619171917F01B4
:100FD000BA2FA92F982F8827840F951FA61FB71FF8
:100FE000E017F10779F79C01AD0166277727CB0160
:100FF000621B730B840B950B60960FB6F894DEBFE3
:101000000FBECDBFDF91CF911F910F91FF90EF9059
:10101000DF90CF90BF90AF900895FC01248131E024
:1010200030930703209329031092080310922A0398
:101030008485682B8BE293E00E9424020C94A60323
:10104000089590E080E008958CE20E94BA02892B16
:1010500031F48DE20E94BA0221E0892B09F020E0F0
:10106000822F08950F931F93CF938C01C62F646036
:101070000E940D086C2F6B7FC8010E940D0883EC45
:1010800090E00197F1F7CF911F910F9108950F9381
:101090001F93CF93DF938C01C62FD62FD07FD160C3
:1010A0006D2F0E940D086D2FC8010E94320880E14B
:1010B000C89FE0011124C1606C2FC8010E940D0877
:1010C0006C2FC8010E94320881E090E0DF91CF913F
:1010D0001F910F91089540E050E060E070E880E0DB
:1010E00097E00E944E0640E050E0BA018EEF96E095
:1010F0000C944E06CF93DF93FC0101900020E9F79A
:101100003197AF01481B590BBC0181E794E00E9465
:10111000F604EC0142E050E062E472E081E794E022
:101120000E94F6048C0F9D1FDF91CF910895CF92FE
:10113000DF92EF92FF92811119C082E097E00E9446
:10114000A7076B017C0182E097E00E947C07F09486
:10115000E094D094C094C11CD11CE11CF11CC701C7
:10116000B601FF90EF90DF90CF90089584E097E074
:101170000E94A7076B017C0184E097E00E947C0736
:10118000EECF4F925F926F927F928F929F92AF922B
:10119000BF92CF92DF92EF92FF92CF93DF9300D076
:1011A00000D0CDB7DEB781E00E94970880E00E94B2
:1011B000970828E030E03E832D838AE9882E89E96C
:1011C000982EA92C8EE3B82E9BE1C92E9FE2D92E32
:1011D0009DE9E92E9EE3F92EB701A601705880E043
:1011E00097E00E944E06B501A4018EEF96E00E94A2
:1011F0004E066AEF70E080E090E00E94C4040E9416
:101200006B0881E00E9497082B013C0180E00E945E
:10121000970869837A838B839C8333E4431633E096
:10122000530661047104C1F063E473E080E090E070
:1012300064197509860997090E94B8142CEA35ECDF
:1012400047E257E30E9417159B01AC01C701B601A5
:101250000E9412166B017C0189819A81AB81BC814D
:1012600083349340A105B105E1F063E473E080E0CD
:1012700090E029813A814B815C81621B730B840B66
:10128000950B0E94B8142CEA35EC47E257E30E9414
:1012900017159B01AC01C501B4010E9412164B0148
:1012A0005C014D815E81415051095E834D83452B28
:1012B00009F092CF0E946B0862E370E080E090E05A
:1012C00026960FB6F894DEBF0FBECDBFDF91CF914B
:1012D000FF90EF90DF90CF90BF90AF909F908F9056
:1012E0007F906F905F904F900C94C4044F925F92E8
:1012F0006F927F928F929F92AF92BF92CF92DF9226
:10130000EF92FF92CF93DF9300D000D0CDB7DEB73E
:1013100081E00E94970880E00E94970826E030E074
:101320003E832D838FE5882E87E0982E8EE0A82EB1
:101330008EE3B82E75016401B701A601705880E0F4
:1013400097E00E944E06B501A40170588EEF96E01A
:101350000E944E066AEF70E080E090E00E94C404B4
:101360000E946B086AE070E080E090E00E94C40494
:1013700081E00E9497082B013C0180E00E949708C1
:1013800069837A838B839C8334EB43163EEF530649
:101390003FEF63067306C1F06CE471E080E090E01B
:1013A00064197509860997090E94B8142CEA35EC6E
:1013B00047E258E30E9417159B01AC01C701B60133
:1013C0000E9412166B017C0189819A81AB81BC81DC
:1013D0008C349140A105B105E1F064EB7EEF8FEF15
:1013E0009FEF29813A814B815C81621B730B840BD7
:1013F000950B0E94B8142CEA35EC47E257E30E94A3
:1014000017159B01AC01C501B4010E9411164B01D7
:101410005C014D815E81415051095E834D83452BB6
:1014200009F08ACF0E946B0862E370E080E090E0F0
:1014300026960FB6F894DEBF0FBECDBFDF91CF91D9
:10144000FF90EF90DF90CF90BF90AF909F908F90E4
:101450007F906F905F904F900C94C4044F925F9276
:101460006F927F928F929F92AF92BF92CF92DF92B4
:10147000EF92FF920F931F93CF93DF9300D000D092
:10148000CDB7DEB79A83898381E00E94970880E018
:101490000E94970889819A816FE070E00E94E115AF
:1014A0008B011E821D828CEB882E86E9982E80E1AE
:1014B000A82E8EE3B82E75016401B701A60180E065
:1014C00097E00E944E06B501A4018EEF96E00E94BF
:1014D0004E066AEF70E080E090E00E94C4040E9433
:1014E0006B086AE070E080E090E00E94C40481E054
:1014F0000E9497082B013C0180E00E9497086983B5
:101500007A838B839C8324EB42162EEF52062FEFB7
:1015100062067206C1F064EB7EEF8FEF9FEF6419F5
:101520007509860997090E94B8142CEA35EC47E240
:1015300058E30E9417159B01AC01C701B6010E9438
:1015400011166B017C0189819A81AB81BC818C343D
:101550009140A105B105E1F06CE471E080E090E01C
:1015600029813A814B815C81621B730B840B950B43
:101570000E94B8142CEA35EC47E257E30E94171595
:101580009B01AC01C501B4010E9412164B015C0124
:101590004D815E814F5F5F4F5E834D83041715075A
:1015A00009F08BCF0E946B0862E370E080E090E06E
:1015B00026960FB6F894DEBF0FBECDBFDF91CF9158
:1015C0001F910F91FF90EF90DF90CF90BF90AF9061
:1015D0009F908F907F906F905F904F900C94C40479
:1015E00085ED8093BC008091030390910403A0914A
:1015F0000503B09106030796A11DB11D23E0B69522
:10160000A795979587952A95D1F72091BC0024FD41
:1016100003C0109201030895409103035091040305
:101620006091050370910603452B462B472B69F308
:101630000097A105B10541F025E32A95F1F70000D7
:101640000197A109B109E1CF809102030C942F0306
:101650001F920F920FB60F9211240F900FBE0F9092
:101660001F9018951F920F920FB60F9211240BB670
:101670000F922F933F934F935F936F937F938F932B
:101680009F93AF93BF93EF93FF938091B900887FAF
:10169000803609F44DC008F040C0883209F4A9C072
:1016A00028F5803109F49DC0C8F4882309F4FBC0F3
:1016B000883009F496C0FF91EF91BF91AF919F914F
:1016C0008F917F916F915F914F913F912F910F90EB
:1016D0000BBE0F900FBE0F901F901895883109F424
:1016E00088C0803241F78093FF0214C0803409F42F
:1016F0009DC040F48033B9F38833E9F68093FF024C
:1017000085ECB0C0803509F485C0883509F496C0F1
:10171000883489F60E94F00ACECF883909F48CC04B
:1017200038F5883729F050F4883611F0803719F6EB
:1017300083E0809301031092D80257C0883809F4DF
:101740007BC0803919F0803809F0B5CF8091D8027C
:10175000803208F071C0E091D80281E08E0F809352
:10176000D8028091BB00F0E0E854FD4F80833DC07B
:10177000803B39F0E0F4803A09F479C0883A09F006
:101780009ACF84E0809301031092B5021092B402C4
:10179000E091B202F091B30219958091B4028111E7
:1017A0000FC081E08093B4021092920209C0803C85
:1017B00009F4A6CF883C09F4A3CF883B09F07BCF7E
:1017C000E091B50281E08E0F8093B502F0E0EE5615
:1017D000FD4F80818093BB009091B5028091B4024F
:1017E00029C08091DC028093BB0085EC8093BC0013
:1017F00062CF9091FE028091FD02981758F5E0911A
:10180000FE0281E08E0F8093FE02F0E0E352FD4F76
:101810008081E9CFE091FE0281E08E0F8093FE028D
:101820008091BB00F0E0E352FD4F80839091FE0277
:101830008091FD029817C8F285E8D8CFE091FE02AA
:1018400081E08E0F8093FE028091BB00F0E0E352B6
:10185000FD4F80838091000381115CCF81E08093F4
:10186000DB0284EA8093BC001092010324CF85EC54
:101870008093BC00109201038091D802803230F432
:10188000E091D802F0E0E854FD4F10826091D80258
:1018900070E0E091B602F091B70288EB92E0199502
:1018A0001092D80208CF1092FF0234CF1F920F92ED
:1018B0000FB60F9211242F933F938F939F93AF9363
:1018C000BF938091670290916802A0916902B091E4
:1018D0006A023091660223E0230F2D3758F50196F6
:1018E000A11DB11D20936602809367029093680248
:1018F000A0936902B0936A0280916B0290916C028E
:10190000A0916D02B0916E020196A11DB11D809350
:101910006B0290936C02A0936D02B0936E02BF9124
:10192000AF919F918F913F912F910F900FBE0F908C
:101930001F90189526E8230F0296A11DB11DD2CF46
:101940001F920F920FB60F9211240BB60F922F9386
:101950003F934F935F936F937F938F939F93AF9337
:10196000BF93EF93FF938091610290916202A091E7
:101970006302B0916402892B8A2B8B2BD1F1909159
:1019800060028091000089278093000080916102AD
:1019900090916202A0916302B09164021816190638
:1019A0001A061B069CF48091610290916202A0913C
:1019B0006302B09164020197A109B10980936102A9
:1019C00090936202A0936302B0936402FF91EF913F
:1019D000BF91AF919F918F917F916F915F914F9147
:1019E0003F912F910F900BBE0F900FBE0F901F9045
:1019F000189580910002ECEBF1E0E4919FEF909359
:101A00000002E230E9F040F4EE2389F0E13091F099
:101A100060E00E94E302DACFE43049F110F1E530F2
:101A2000B9F7909173009D7F90937300F1CF10925E
:101A30006E00EECF90916F009D7F90936F00E8CF86
:101A4000909170009D7F9093700091E09093B00012
:101A50009091B100987F94609093B1001092B30080
:101A6000D7CF909171009D7F90937100D1CF9091CD
:101A700072009D7F90937200CBCF1F920F920FB692
:101A80000F9211240BB60F922F933F934F935F93B6
:101A90006F937F938F939F93AF93BF93EF93FF9336
:101AA00087E393E00E949705FF91EF91BF91AF917B
:101AB0009F918F917F916F915F914F913F912F9166
:101AC0000F900BBE0F900FBE0F901F9018951F9296
:101AD0000F920FB60F9211240BB60F922F933F93D4
:101AE0004F935F936F937F938F939F93AF93BF9326
:101AF000EF93FF9387E393E00E942305FF91EF911B
:101B0000BF91AF919F918F917F916F915F914F9115
:101B10003F912F910F900BBE0F900FBE0F901F9013
:101B200018951F920F920FB60F9211240BB60F92B9
:101B30002F933F934F935F936F937F938F939F93D5
:101B4000AF93BF93EF93FF9384ED93E00E949705CB
:101B5000FF91EF91BF91AF919F918F917F916F9185
:101B60005F914F913F912F910F900BBE0F900FBE41
:101B70000F901F9018951F920F920FB60F9211247D
:101B80000BB60F922F933F934F935F936F937F9377
:101B90008F939F93AF93BF93EF93FF9384ED93E065
:101BA0000E942305FF91EF91BF91AF919F918F917B
:101BB0007F916F915F914F913F912F910F900BBE4D
:101BC0000F900FBE0F901F9018951F920F920FB697
:101BD0000F9211240BB60F922F933F934F935F9365
:101BE0006F937F938F939F93AF93BF93EF93FF93E5
:101BF00081E794E00E949705FF91EF91BF91AF912B
:101C00009F918F917F916F915F914F913F912F9114
:101C10000F900BBE0F900FBE0F901F9018951F9244
:101C20000F920FB60F9211240BB60F922F933F9382
:101C30004F935F936F937F938F939F93AF93BF93D4
:101C4000EF93FF9381E794E00E942305FF91EF91CA
:101C5000BF91AF919F918F917F916F915F914F91C4
:101C60003F912F910F900BBE0F900FBE0F901F90C2
:101C700018951F920F920FB60F9211240BB60F9268
:101C80002F933F934F935F936F937F938F939F9384
:101C9000AF93BF93EF93FF9380910F050E94BA0219
:101CA00020911305309114052F5F3F4F3093140599
:101CB0002093130590911205953618F096E09093B5
:101CC0000E0590910E05943009F466C0B8F4923078
:101CD000F1F0933009F444C090911105992309F46F
:101CE0006BC081117CC080911005882309F463C00A
:101CF0008091100561E00E94E3025EC0953009F416
:101D000057C0963049F791E09093DF054FC081119D
:101D1000E3CF20911305309114052436310528F4C2
:101D20001092140510921305D7CF1092DF05109270
:101D30001205E091120591E09E0F90931205F0E0DC
:101D40002091130530911405EE0FFF1FE25FFA4F4B
:101D500030872783109214051092130593E019C061
:101D6000813009F0B9CFE091120591E09E0F909378
:101D70001205F0E02091130530911405EE0FFF1FBE
:101D8000E25FFA4F308727831092140510921305F3
:101D900094E090930E05A0CF882359F2209113056B
:101DA000309114052536310508F496CF95E0F1CF32
:101DB000811192CFB5CF2F9AFF91EF91BF91AF9143
:101DC0009F918F917F916F915F914F913F912F9153
:101DD0000F900BBE0F900FBE0F901F901895809123
:101DE0001005882321F08091100560E084CF2F98A2
:101DF000E3CF1F920F920FB60F9211240BB60F92E2
:101E00002F933F934F935F936F937F938F939F9302
:101E1000AF93BF93CF93DF93EF93FF9380915F02D4
:101E2000C0911C06D0E087FF23C01092850010925D
:101E3000840080915F028F5F80935F0280915F02D8
:101E4000082E000C990B8C179D0724F480915F02DB
:101E50008C3074F1809184009091850084349C4989
:101E600008F465C08091840090918500049661C05B
:101E700080915F02082E000C990B8C179D07CCF601
:101E800030915F0225E03203F0011124E052FA4F55
:101E9000808186FFCECF30915F023203F0011124A2
:101EA000E052FA4F808160E08F730E94E302C1CF5D
:101EB000809184009091850030915F0225E032038B
:101EC000F0011124E052FA4F41815281840F951F95
:101ED000909389008093880030915F023203F00173
:101EE0001124E052FA4F808186FF0CC030915F02CE
:101EF0003203F0011124E052FA4F808161E08F73C8
:101F00000E94E302FF91EF91DF91CF91BF91AF91DA
:101F10009F918F917F916F915F914F913F912F9101
:101F20000F900BBE0F900FBE0F901F90189580E47E
:101F30009CE990938900809388008FEF80935F02E3
:101F4000E1CFFC0181E08083818382830895109238
:101F50002E0310922D0388EE93E0A0E0B0E0809372
:101F60002F0390933003A0933103B093320326E103
:101F700032E030932C0320932B0310923A031092FB
:101F8000390380933B0390933C03A0933D03B093AC
:101F90003E0328E232E0309338032093370345E3D1
:101FA00051E0509344034093430344E351E0509382
:101FB00046034093450340E351E050934803409368
:101FC000470341E351E050934A034093490342E3FE
:101FD00051E050934C0340934B0346E351E0509340
:101FE0004E0340934D0310925003109251031092F0
:101FF0005203109253031092D7031092D60380938A
:10200000D8039093D903A093DA03B093DB03309302
:10201000D5032093D40345ED50E05093E103409362
:10202000E00344ED50E05093E3034093E20340EDBE
:1020300050E05093E5034093E40341ED50E05093AA
:10204000E7034093E60342ED50E05093E9034093E9
:10205000E80346ED50E05093EB034093EA031092FF
:10206000ED031092EE031092EF031092F003109222
:102070007404109273048093750490937604A09373
:102080007704B0937804309372042093710485EC44
:1020900090E090937E0480937D0484EC90E0909394
:1020A000800480937F0480EC90E09093820480937E
:1020B000810481EC90E0909384048093830482EC0B
:1020C00090E0909386048093850486EC90E0909352
:1020D00088048093870410928A0410928B041092D3
:1020E0008C0410928D048091070290910802A091B7
:1020F0000902B0910A028093060790930707A09304
:102100000807B093090780910B0290910C02A091EF
:102110000D02B0910E0280930A0790930B07A093D3
:102120000C07B0930D0784E080930E0787E080933F
:102130000F071092100784EB8093110786E18093BC
:10214000120788E18093130787E18093140789E1E0
:1021500080931507E0911C06EC3008F4A9C08FEFBE
:1021600080931607E0911C06EC3008F4B2C08FEFA4
:10217000809317078CE08093E50684E28093E6065F
:1021800086E08093E70685E08093E8068FE1809300
:10219000E9068EE18093EA0683E28093EB0682E211
:1021A0008093EC0685E48093ED0684E48093EE064C
:1021B00080E48093F1061092F6061092F7061092D2
:1021C000F8061092F9061092FA061092FB06109289
:1021D000FC061092FD06E7E2F6E08FEF9FEFDC01D0
:1021E000128213821482158216821782108611863B
:1021F00083879487A587B6878787908BA18BB28BBF
:10220000128611821082739626E0E53EF20741F7AE
:102210008DE090E00E94B916FC01138212828AE3DD
:1022200092E091838083118687E2848384E18287B0
:1022300084E083871486F0932406E09323061092AB
:1022400025061092260685E280930F05109211054F
:1022500010921E0610921D061092200610921F0664
:10226000109222061092210661E070E090E080E07A
:102270000E94DE170097F1F190931E0680931D06D1
:102280001092200610921F062091210630912206FE
:10229000232B11F4FC0110821092220610922106C9
:1022A00064E472E080911D0690911E060C94C8189B
:1022B00081E08E0F80931C06E093160725E0E29FD5
:1022C000F0011124E052FA4F88EB9BE09283818366
:1022D00049CF81E08E0F80931C06E093170785E0BD
:1022E000E89FF0011124E052FA4F88EB9BE09283C3
:1022F000818340CF80911D0690911E06009711F0BA
:102300000E94551710921E0610921D06109222066A
:10231000109221061092200610921F060895CF9366
:10232000DF9300D0CDB7DEB7789484B5826084BDEA
:1023300084B5816084BD85B5826085BD85B58160C9
:1023400085BD80916E00816080936E001092810047
:102350008091810082608093810080918100816002
:1023600080938100809180008160809380008091C3
:10237000B10084608093B1008091B000816080934F
:10238000B0008091910082608093910080919100D3
:102390008160809391008091900081608093900093
:1023A0008091A10082608093A1008091A100816052
:1023B0008093A1008091A00081608093A000809113
:1023C00021018260809321018091210181608093AD
:1023D00021018091200181608093200180917A0009
:1023E000846080937A0080917A00826080937A0082
:1023F00080917A00816080937A0080917A00806871
:1024000080937A001092C100E0918104F0918204DF
:1024100082E08083E0917D04F0917E041082E0915F
:102420007F04F09180048FEC808310928904E09106
:102430008504F091860486E08083E0918304F09126
:102440008404808180618083E0918304F09184041E
:10245000808188608083E0918304F091840480818E
:1024600080688083E0918304F091840480818F7D73
:10247000808361E08091E6060E94500360E08091D5
:10248000E6060E94E30260E08091E5060E945003A8
:102490008BE293E09093F0068093EF061092900207
:1024A00010928F021092080310922A030E941103C7
:1024B0008BEC91E09093B3028093B2028CEC91E0AC
:1024C0009093B7028093B60280E090E1A0E0B0E084
:1024D0008093F2069093F306A093F406B093F5066A
:1024E0008AE090E0A0E0B0E08093F6069093F706D3
:1024F000A093F806B093F90680E090E0A0E0B0E485
:102500008093FA069093FB06A093FC06B093FD0619
:1025100060E070E185E00E948D046FE979E380E07E
:102520000E948D04B7EEEB2EB6E0FB2E05EE16E012
:1025300080E4682E82E0782E96E8892E92E0992E2B
:102540002BECC22E27E0D22ED70112969C91F701D8
:1025500081917F01D80159968C9359975A969C93F3
:1025600061E00E94500361E0F801828D0E945003F7
:102570005801FDE1AF0EB11CD70115969C9115973E
:1025800013968C91F801858F968F61E00E9450031D
:1025900060E0D8015E968C910E94500361E0F801E2
:1025A000858D0E94E3025FB6F894809165028111E7
:1025B00025C0F3018491F4019491E82FF0E0EE0F2F
:1025C000FF1FE354FE4FA591B4918C91982321F401
:1025D00061E085E30E94E30261E085E30E9450032D
:1025E0008CB580618CBD8CB580648CBD61E084E36A
:1025F0000E94500361E083E30E94500380916502D2
:102600008F5F809365025FBEC6010197F1F760E0BE
:10261000D8015D968C910E94E30288E80E947507BC
:1026200083E00E94750761E0F801858D0E94E30256
:10263000C6010197F1F7C5010E947C070E5F1F4F8D
:10264000F6E0093E1F0709F07FCF7AE0E72E77E03A
:10265000F72E06E017E0EEE0CE2EE7E0DE2E60E09B
:10266000D7018D917D010E945003CE14DF04B9F78C
:102670002AE0C22E27E0D22E36E0E32E37E0F32EFA
:1026800045E0B42E5CE0952E62E0A62EF80180892C
:102690008C3008F047C0808461E0882D0E94500390
:1026A000D80150968C91B89EF0011124E052FA4F57
:1026B000282D2F739081907C922B9083138214820B
:1026C000692D0E94D515899DA001112430E020E0DC
:1026D000BA01620F731FB69EF001B79EF00D112470
:1026E000E052FA4F908196FD12C02F5F3F4F2C3081
:1026F000310571F781110BC010928000A09281000A
:102700001092850010928400A6BAA0926F00D801A2
:102710005096EC91BE9EF0011124E052FA4F808158
:1027200080648083F80196858485D70152968C93C6
:10273000529753969C9360E00E94500361E0F7012A
:1027400083890E94500360E0D70153968C910E94C8
:10275000E3020F5F1F4FB2E0EB0EF11CCE14DF045B
:1027600009F094CFF8941092200189E08093210120
:1027700080E293E090932901809328011092250133
:102780001092240182E080937300789480930E0568
:102790001092120580910F0560E00E945003809115
:1027A0000F0290911002A091110289839A83AB834A
:1027B000B12C01E010E0F12CE12CD12CC12CF1E086
:1027C000EF16F10409F4A2C082E0E816F10409F45E
:1027D000ACC00E942408811113C00E94C108AFEF51
:1027E000CA1ADA0ACE0101960E94A10FF12CE12C3F
:1027F0003DC0EAE0CE16D10411F70E946B08FFCF6E
:102800000115110571F419828AE590E00E942E0AE3
:102810000E94C1080E947609F12CE12C01E010E031
:1028200025C00130110509F063C01A828B8188230D
:10283000B1F18AE590E00E942E0A0E9424088111DD
:1028400029C00E94C1080E9476090E9424088111B3
:102850001FC00E94C108BFEFCB1ADB0ACE01019650
:102860000E94A10FF12CE12C02E010E0F9E0CF165C
:10287000D10409F0BECFB1106DC00115110509F4E6
:1028800061C00230110509F05FC010E000E05CC0DB
:102890001B82E8CF1B8292E0E92EF12CE7CF8981E1
:1028A000882309F4A3CF0E9476090E94240881118D
:1028B0001AC00E94C1088AE590E00E942E0A0E9478
:1028C000240881110EC00E94C108EFEFCE1ADE0A63
:1028D000CE0101960E94A10FF12CE12C10E000E046
:1028E000C5CF1982F9CF1982EE24E394F12CBECF23
:1028F0000230110509F07ACF1B820E9476090E94EE
:10290000C1088AE590E00E942E0A86CF8AE590E011
:102910000E942E0A8AE590E00E942E0A0E94C108B9
:102920000E9476090F5F1F4F61CF0E9476090E94B7
:1029300076090E94C1088AE590E00E942E0A0150A3
:10294000110954CF02E010E084EB90E00E942E0ABF
:10295000D12CC12CBB24B39432CF80911D06909111
:102960001E06009711F00C9455170895E89409C0BD
:1029700097FB3EF490958095709561957F4F8F4FB2
:102980009F4F9923A9F0F92F96E9BB279395F695C8
:10299000879577956795B795F111F8CFFAF4BB0F46
:1029A00011F460FF1BC06F5F7F4F8F4F9F4F16C0AA
:1029B000882311F096E911C0772321F09EE8872F34
:1029C000762F05C0662371F096E8862F70E060E0F0
:1029D0002AF09A95660F771F881FDAF7880F969569
:1029E000879597F90895990F0008550FAA0BE0E80D
:1029F000FEEF16161706E807F907C0F012161306C1
:102A0000E407F50798F0621B730B840B950B39F400
:102A10000A2661F0232B242B252B21F408950A2666
:102A200009F4A140A6958FEF811D811D08950E9494
:102A30002A150C949B150E948D1538F00E94941550
:102A400020F0952311F00C9484150C948A15112410
:102A50000C94CF150E94AC1570F3959FC1F3950FA0
:102A600050E0551F629FF001729FBB27F00DB11D12
:102A7000639FAA27F00DB11DAA1F649F6627B00DA2
:102A8000A11D661F829F2227B00DA11D621F739F8B
:102A9000B00DA11D621F839FA00D611D221F749F99
:102AA0003327A00D611D231F849F600D211D822FE0
:102AB000762F6A2F11249F5750409AF0F1F0882307
:102AC0004AF0EE0FFF1FBB1F661F771F881F915034
:102AD0005040A9F79E3F510580F00C9484150C944A
:102AE000CF155F3FE4F3983ED4F3869577956795CD
:102AF000B795F795E7959F5FC1F7FE2B880F911D5E
:102B00009695879597F9089597F99F6780E870E003
:102B100060E008959FEF80EC089500240A94161653
:102B2000170618060906089500240A9412161306BB
:102B3000140605060895092E0394000C11F4882349
:102B400052F0BB0F40F4BF2B11F460FF04C06F5F65
:102B50007F4F8F4F9F4F089557FD9058440F551F3B
:102B600059F05F3F71F04795880F97FB991F61F00F
:102B70009F3F79F087950895121613061406551F86
:102B8000F2CF4695F1DF08C0161617061806991FF2
:102B9000F1CF86957105610508940895E894BB27E7
:102BA00066277727CB0197F90895991B79E004C030
:102BB000991F961708F0961B881F7A95C9F780957C
:102BC000089597FB072E16F4009407D077FD09D0DF
:102BD0000E94FD1507FC05D03EF4909581959F4F0E
:102BE0000895709561957F4F0895EE0FFF1F881F20
:102BF0008BBF0790F691E02D1994AA1BBB1B51E1E6
:102C000007C0AA1FBB1FA617B70710F0A61BB70B5C
:102C1000881F991F5A95A9F780959095BC01CD0101
:102C200008955058BB27AA270E9429160C949B157B
:102C30000E948D1538F00E94941520F039F49F3FC2
:102C400019F426F40C948A150EF4E095E7FB0C9425
:102C50008415E92F0E94AC1558F3BA176207730761
:102C60008407950720F079F4A6F50C94CE150EF4A0
:102C7000E0950B2EBA2FA02D0B01B90190010C018C
:102C8000CA01A0011124FF27591B99F0593F50F4A4
:102C9000503E68F11A16F040A22F232F342F4427FC
:102CA000585FF3CF469537952795A795F0405395F4
:102CB000C9F77EF41F16BA0B620B730B840BBAF0C4
:102CC0009150A1F0FF0FBB1F661F771F881FC2F72F
:102CD0000EC0BA0F621F731F841F48F48795779543
:102CE0006795B795F7959E3F08F0B0CF9395880FFD
:102CF00008F09927EE0F9795879508950E948516FD
:102D00006894B1110C94CF1508950E94B41588F001
:102D10009F5798F0B92F9927B751B0F0E1F0660F9F
:102D2000771F881F991F1AF0BA95C9F714C0B130E0
:102D300091F00E94CE15B1E008950C94CE15672F46
:102D4000782F8827B85F39F0B93FCCF3869577950F
:102D50006795B395D9F73EF49095809570956195F8
:102D60007F4F8F4F9F4F08950E94F31408F48FEF09
:102D700008950F931F93CF93DF938230910510F442
:102D800082E090E0E0911E07F0911F0730E020E024
:102D9000B0E0A0E0309799F42115310509F44AC05C
:102DA000281B390B24303105D8F58A819B816115A8
:102DB000710589F1FB0193838283FE0111C040817B
:102DC00051810281138148175907E0F048175907CC
:102DD00099F4109761F012960C93129713961C9326
:102DE0003296CF01DF91CF911F910F9108950093FB
:102DF0001E0710931F07F4CF2115310551F042171C
:102E0000530738F0A901DB019A01BD01DF01F80188
:102E1000C1CFEF01F9CF90931F0780931E07CDCF4D
:102E2000FE01E20FF31F8193919322503109398300
:102E30002883D7CF20911C0730911D07232B41F405
:102E4000209103023091040230931D0720931C0748
:102E500020910102309102022115310541F42DB774
:102E60003EB74091050250910602241B350BE091BC
:102E70001C07F0911D07E217F307A0F42E1B3F0B70
:102E80002817390778F0AC014E5F5F4F24173507DC
:102E900048F04E0F5F1F50931D0740931C0781930E
:102EA00091939FCFF0E0E0E09CCFCF93DF9300972A
:102EB000E9F0FC01329713821282A0911E07B091B3
:102EC0001F07ED0130E020E01097A1F4208131814F
:102ED000820F931F20911C0730911D072817390777
:102EE00009F061C0F0931D07E0931C07DF91CF91BB
:102EF0000895EA01CE17DF07E8F54A815B819E015C
:102F000041155105B1F7E901FB83EA8349915991D4
:102F1000C40FD51FEC17FD0761F4808191810296E3
:102F2000840F951FE90199838883828193819B8314
:102F30008A83F0E0E0E012968D919C9113970097C0
:102F4000B9F52D913C911197CD010296820F931FF7
:102F500020911C0730911D072817390739F6309743
:102F600051F510921F0710921E07B0931D07A093F2
:102F70001C07BCCFD383C28340815181840F951F2E
:102F8000C817D90761F44E5F5F4F88819981480F58
:102F9000591F518340838A819B81938382832115AA
:102FA000310509F0B0CFF0931F07E0931E079ECFC5
:102FB000FD01DC01C0CF13821282D7CF4F925F9206
:102FC0006F927F928F929F92AF92BF92CF92DF9239
:102FD000EF92FF920F931F93CF93DF938C01009793
:102FE00099F4CB01DF91CF911F910F91FF90EF905A
:102FF000DF90CF90BF90AF909F908F907F906F9019
:103000005F904F900C94B916FC01E60FF71F9C01DE
:1030100022503109E217F30708F4AEC0D901CD916F
:10302000DC911197C617D70720F1C530D10578F08C
:10303000CE0104978617970750F0C61BD70B22972F
:10304000C193D1936D937C93CF010E945517C80112
:10305000DF91CF911F910F91FF90EF90DF90CF9074
:10306000BF90AF909F908F907F906F905F904F90A8
:1030700008955B01AC1ABD0A4C018C0E9D1EA091F7
:103080001E07B0911F07512C412CF12CE12C1097F9
:1030900031F580911C0790911D078815990509F05D
:1030A0005CC04616570608F058C080910102909106
:1030B0000202009741F48DB79EB7409105025091EE
:1030C0000602841B950BE817F90708F055C0F0932A
:1030D0001D07E0931C07F90171836083B8CF8D91C0
:1030E0009C91119712966C90129713967C9013975F
:1030F000A815B90559F56C0142E0C40ED11CCA14DB
:10310000DB0420F1AC014A195B09DA01129615972C
:1031100080F06282738251834083D9016D937C93E6
:10312000E114F10471F0D7011396FC93EE9312971A
:103130008ECF22968C0F9D1FF90191838083F3011E
:10314000EFCFF0931F07E0931E0781CF4816590673
:1031500008F42C017D01D3019ACFCB010E94B9164E
:103160007C01009749F0AE01B8010E94BF18C80168
:103170000E94551787016BCF10E000E068CFFB017C
:10318000DC0102C001900D9241505040D8F70895E3
:10319000FB01DC0101900D920020E1F7089511E0A0
:1031A000C0E7D1E000E006C0802FFE010E94F515C7
:1031B0002196011DC137D10780E00807A9F7F894CF
:0231C000FFCF3F
:1031C200FF000020078000363738391B1D1A1C010A
:1031D2000101000000002402F7012108CD01F001E5
:1031E200DD01CE0100000000B905F6043C0506062B
:1031F2006D054B055F05000000004708F604210835
:0632020020080D0A000087
:00000001FF
